{
  "contractName": "RoomCreator",
  "abi": [
    {
      "constant": true,
      "inputs": [
        {
          "internalType": "uint256",
          "name": "",
          "type": "uint256"
        }
      ],
      "name": "voteRoomAddresses",
      "outputs": [
        {
          "internalType": "address",
          "name": "",
          "type": "address"
        }
      ],
      "payable": false,
      "stateMutability": "view",
      "type": "function"
    },
    {
      "constant": false,
      "inputs": [
        {
          "internalType": "string",
          "name": "description",
          "type": "string"
        },
        {
          "internalType": "address[]",
          "name": "invitedVoters",
          "type": "address[]"
        }
      ],
      "name": "createRoom",
      "outputs": [],
      "payable": false,
      "stateMutability": "nonpayable",
      "type": "function"
    },
    {
      "constant": true,
      "inputs": [],
      "name": "getAllVoteRooms",
      "outputs": [
        {
          "internalType": "address[]",
          "name": "",
          "type": "address[]"
        }
      ],
      "payable": false,
      "stateMutability": "view",
      "type": "function"
    }
  ],
  "bytecode": "0x608060405234801561001057600080fd5b50611616806100206000396000f3fe608060405234801561001057600080fd5b50600436106100415760003560e01c80639446ad4c14610046578063d65ea2da1461007f578063feda460f146100d7575b600080fd5b6100636004803603602081101561005c57600080fd5b5035610203565b604080516001600160a01b039092168252519081900360200190f35b61008761022a565b60408051602080825283518183015283519192839290830191858101910280838360005b838110156100c35781810151838201526020016100ab565b505050509050019250505060405180910390f35b610201600480360360408110156100ed57600080fd5b81019060208101813564010000000081111561010857600080fd5b82018360208201111561011a57600080fd5b8035906020019184600183028401116401000000008311171561013c57600080fd5b91908080601f016020809104026020016040519081016040528093929190818152602001838380828437600092019190915250929594936020810193503591505064010000000081111561018f57600080fd5b8201836020820111156101a157600080fd5b803590602001918460208302840111640100000000831117156101c357600080fd5b91908080602002602001604051908101604052809392919081815260200183836020028082843760009201919091525092955061028c945050505050565b005b6000818154811061021057fe5b6000918252602090912001546001600160a01b0316905081565b6060600080548060200260200160405190810160405280929190818152602001828054801561028257602002820191906000526020600020905b81546001600160a01b03168152600190910190602001808311610264575b5050505050905090565b600033838360405161029d906103c9565b6001600160a01b0384168152606060208083018281528551928401929092528451604084019160808501919087019080838360005b838110156102ea5781810151838201526020016102d2565b50505050905090810190601f1680156103175780820380516001836020036101000a031916815260200191505b508381038252845181528451602091820191808701910280838360005b8381101561034c578181015183820152602001610334565b5050505090500195505050505050604051809103906000f080158015610376573d6000803e3d6000fd5b50600080546001810182559080527f290decd9548b62a8d60345a988386fc84ba6bc95484008f6362f93160ef3e5630180546001600160a01b0319166001600160a01b0392909216919091179055505050565b61120b806103d78339019056fe60806040523480156200001157600080fd5b506040516200120b3803806200120b833981810160405260608110156200003757600080fd5b8151602083018051604051929492938301929190846401000000008211156200005f57600080fd5b9083019060208201858111156200007557600080fd5b82516401000000008111828201881017156200009057600080fd5b82525081516020918201929091019080838360005b83811015620000bf578181015183820152602001620000a5565b50505050905090810190601f168015620000ed5780820380516001836020036101000a031916815260200191505b50604052602001805160405193929190846401000000008211156200011157600080fd5b9083019060208201858111156200012757600080fd5b82518660208202830111640100000000821117156200014557600080fd5b82525081516020918201928201910280838360005b83811015620001745781810151838201526020016200015a565b50505050919091016040525050600080546001600160a01b0319166001600160a01b03871617905550508151620001b390600490602085019062000222565b5060005b815181101562000218576001806000848481518110620001d357fe5b6020908102919091018101516001600160a01b03168252810191909152604001600020805460ff191691151591909117905560028054600190810190915501620001b7565b50505050620002c7565b828054600181600116156101000203166002900490600052602060002090601f016020900481019282601f106200026557805160ff191683800117855562000295565b8280016001018555821562000295579182015b828111156200029557825182559160200191906001019062000278565b50620002a3929150620002a7565b5090565b620002c491905b80821115620002a35760008155600101620002ae565b90565b610f3480620002d76000396000f3fe608060405234801561001057600080fd5b50600436106100f55760003560e01c8063853daaa711610097578063b2c2f2e811610066578063b2c2f2e814610512578063c1fa3b2e1461052f578063cee024dc1461054c578063ead1aeaf14610554576100f5565b8063853daaa7146103605780638b86579f1461040d578063995e43391461042a5780639e133f271461046f576100f5565b8063481c6a75116100d3578063481c6a75146101db5780635df81330146101ff57806368d319f1146102c6578063750e443a14610343576100f5565b80631cbc1ef6146100fa5780633bfec29e1461011957806342169e48146101d3575b600080fd5b6101176004803603602081101561011057600080fd5b503561058e565b005b6101c16004803603604081101561012f57600080fd5b81019060208101813564010000000081111561014a57600080fd5b82018360208201111561015c57600080fd5b8035906020019184600183028401116401000000008311171561017e57600080fd5b91908080601f01602080910402602001604051908101604052809392919081815260200183838082843760009201919091525092955050505035151590506106a5565b60408051918252519081900360200190f35b6101c16106d8565b6101e36106de565b604080516001600160a01b039092168252519081900360200190f35b61021c6004803603602081101561021557600080fd5b50356106ed565b60405180806020018815151515815260200187815260200186815260200185815260200184815260200183151515158152602001828103825289818151815260200191508051906020019080838360005b8381101561028557818101518382015260200161026d565b50505050905090810190601f1680156102b25780820380516001836020036101000a031916815260200191505b509850505050505050505060405180910390f35b6102ce6107c9565b6040805160208082528351818301528351919283929083019185019080838360005b838110156103085781810151838201526020016102f0565b50505050905090810190601f1680156103355780820380516001836020036101000a031916815260200191505b509250505060405180910390f35b6101176004803603602081101561035957600080fd5b5035610857565b6101c16004803603606081101561037657600080fd5b81019060208101813564010000000081111561039157600080fd5b8201836020820111156103a357600080fd5b803590602001918460018302840111640100000000831117156103c557600080fd5b91908080601f0160208091040260200160405190810160405280939291908181526020018383808284376000920191909152509295505082359350505060200135151561093c565b6101176004803603602081101561042357600080fd5b5035610a52565b6104476004803603602081101561044057600080fd5b5035610b3c565b6040805194855260208501939093528383019190915215156060830152519081900360800190f35b6101176004803603602081101561048557600080fd5b8101906020810181356401000000008111156104a057600080fd5b8201836020820111156104b257600080fd5b803590602001918460208302840111640100000000831117156104d457600080fd5b919080806020026020016040519081016040528093929190818152602001838360200280828437600092019190915250929550610bd3945050505050565b6101c16004803603602081101561052857600080fd5b5035610c4f565b6101176004803603602081101561054557600080fd5b5035610d8a565b6101c1610e0a565b61057a6004803603602081101561056a57600080fd5b50356001600160a01b0316610e11565b604080519115158252519081900360200190f35b806003818154811061059c57fe5b600091825260209091206007600890920201015460ff166105d3573360009081526001602052604090205460ff166105d357600080fd5b600381815481106105e057fe5b600091825260209091206001600890920201015460ff161561060157600080fd5b6003818154811061060e57fe5b600091825260208083203384526002600890930201919091019052604090205460ff161561063b57600080fd5b6003828154811061064857fe5b6000918252602090912060056008909202010180546001908101909155600380548490811061067357fe5b60009182526020808320338452600892909202909101600201905260409020805460ff19169115159190911790555050565b600080546001600160a01b031633146106bd57600080fd5b6106c98360008461093c565b50506003546000190192915050565b60025481565b6000546001600160a01b031681565b600381815481106106fa57fe5b60009182526020918290206008919091020180546040805160026001841615610100026000190190931692909204601f8101859004850283018501909152808252919350918391908301828280156107935780601f1061076857610100808354040283529160200191610793565b820191906000526020600020905b81548152906001019060200180831161077657829003601f168201915b5050505060018301546003840154600485015460058601546006870154600790970154959660ff94851696939550919390921687565b6004805460408051602060026001851615610100026000190190941693909304601f8101849004840282018401909252818152929183018282801561084f5780601f106108245761010080835404028352916020019161084f565b820191906000526020600020905b81548152906001019060200180831161083257829003601f168201915b505050505081565b806003818154811061086557fe5b600091825260209091206007600890920201015460ff1661089c573360009081526001602052604090205460ff1661089c57600080fd5b600381815481106108a957fe5b600091825260209091206001600890920201015460ff16156108ca57600080fd5b600381815481106108d757fe5b600091825260208083203384526002600890930201919091019052604090205460ff161561090457600080fd5b6003828154811061091157fe5b6000918252602090912060046008909202010180546001908101909155600380548490811061067357fe5b600080546001600160a01b0316331461095457600080fd5b61095c610e26565b506040805160e08101825285815260006020808301829052928201819052606082018190526080820181905260a0820186905284151560c0830152600380546001810180835591909252825180519394919385936008027fc2575a0e9e593c00f959f8c92f12db2869c3395a3b0502d05e2516446f71f85b01926109e4928492910190610e67565b50602082015160018201805491151560ff199283161790556040830151600380840191909155606084015160048401556080840151600584015560a0840151600684015560c09093015160079092018054921515929091169190911790555460001901925050509392505050565b8060038181548110610a6057fe5b600091825260209091206007600890920201015460ff16610a97573360009081526001602052604090205460ff16610a9757600080fd5b60038181548110610aa457fe5b600091825260209091206001600890920201015460ff1615610ac557600080fd5b60038181548110610ad257fe5b600091825260208083203384526002600890930201919091019052604090205460ff1615610aff57600080fd5b60038281548110610b0c57fe5b90600052602060002090600802016003016000815480929190600101919050555060016003838154811061067357fe5b60008060008060038581548110610b4f57fe5b90600052602060002090600802016003015460038681548110610b6e57fe5b90600052602060002090600802016004015460038781548110610b8d57fe5b90600052602060002090600802016005015460038881548110610bac57fe5b60009182526020909120600890910201600101549298919750955060ff9091169350915050565b6000546001600160a01b03163314610bea57600080fd5b60005b8151811015610c4b576001806000848481518110610c0757fe5b6020908102919091018101516001600160a01b03168252810191909152604001600020805460ff191691151591909117905560028054600190810190915501610bed565b5050565b6000610c59610e26565b60038381548110610c6657fe5b6000918252602091829020604080516008939093029091018054600260018216156101009081026000190190921604601f81018690049095028401810190925260e0830184815292939092849290918491840182828015610d085780601f10610cdd57610100808354040283529160200191610d08565b820191906000526020600020905b815481529060010190602001808311610ceb57829003601f168201915b505050505081526020016001820160009054906101000a900460ff16151515158152602001600382015481526020016004820154815260200160058201548152602001600682015481526020016007820160009054906101000a900460ff16151515158152505090508060600151816040015182608001510101915050919050565b6000546001600160a01b03163314610da157600080fd5b8060038181548110610daf57fe5b906000526020600020906008020160060154610dca82610c4f565b1015610dd557600080fd5b600160038381548110610de457fe5b60009182526020909120600890910201600101805460ff19169115159190911790555050565b6003545b90565b60016020526000908152604090205460ff1681565b6040518060e0016040528060608152602001600015158152602001600081526020016000815260200160008152602001600081526020016000151581525090565b828054600181600116156101000203166002900490600052602060002090601f016020900481019282601f10610ea857805160ff1916838001178555610ed5565b82800160010185558215610ed5579182015b82811115610ed5578251825591602001919060010190610eba565b50610ee1929150610ee5565b5090565b610e0e91905b80821115610ee15760008155600101610eeb56fea265627a7a723158204eb29be43c899daae54cfdbf1191664781f970397c13a6e8fbc5fb9af265d2e864736f6c63430005100032a265627a7a723158202a3b2bb6567e67d03501c367e8f51325fcba3c2f704bac657fed47f3bdca3f0764736f6c63430005100032",
  "source": "// // SPDX-License-Identifier: MIT\npragma solidity >=0.5.0 <0.8.0;\n\nimport \"./VoteRoom.sol\";\n\n/**\n * @title Vote room Creator smart contract, create vote rooms and manage them\n * @author Group 3 (Jonas Buse, Emir Simsek, Felix Pollok, Michael Meissner)\n * @notice A smart contract that anyone create their own vote rooms and manage them\n */\ncontract RoomCreator {\n    /// List of all vote rooms\n    address[] public voteRoomAddresses;\n\n    /// create a new vote room\n    function createRoom(\n        string memory description,\n        address[] memory invitedVoters\n    ) public {\n        address newVoteRoom = address(\n            new VoteRoom(msg.sender, description, invitedVoters)\n        );\n        voteRoomAddresses.push(newVoteRoom);\n    }\n\n    /// get all vote rooms\n    function getAllVoteRooms() public view returns (address[] memory) {\n        return voteRoomAddresses;\n    }\n}\n",
  "sourcePath": "/home/jonas/Documents/06_ss-22/blockchain/projekt/SimpleVote/ethereum/contracts/RoomCreator.sol",
  "compiler": {
    "name": "solc",
    "version": "0.5.16+commit.9c3226ce.Emscripten.clang"
  },
  "schemaVersion": "3.4.1",
  "updatedAt": "2022-06-30T08:26:16.734Z",
  "networkType": "ethereum",
  "devdoc": {
    "author": "Group 3 (Jonas Buse, Emir Simsek, Felix Pollok, Michael Meissner)",
    "methods": {},
    "title": "Vote room Creator smart contract, create vote rooms and manage them"
  },
  "userdoc": {
    "methods": {
      "createRoom(string,address[])": {
        "notice": "create a new vote room"
      },
      "getAllVoteRooms()": {
        "notice": "get all vote rooms"
      }
    },
    "notice": "A smart contract that anyone create their own vote rooms and manage them"
  }
}